S01A0000416C6C206F6E20616E6420616C6C206F66662E73726563ED
S11300000C942A000C9434000C9434000C943400A6
S11300100C9434000C9434000C9434000C9434008C
S11300200C9434000C9434000C9434000C9434007C
S11300300C9434000C9434000C9434000C9434006C
S11300400C9434000C9434000C9434000C9434005C
S11300500C94340011241FBECFE5D4E0DEBFCDBF25
S11300600E9436000C944F020C9400008FEF87BB63
S113007018BA2FE936E841E0215030404040E1F71A
S113008000C000009FEF98BB5FE36DE073E0515048
S113009060407040E1F700C0000018BA8FE3ADE0A3
S11300A0E3E08150A040E040E1F700C0000088B3E5
S11300B0806888BBFFE32DE033E0F15020403040FE
S11300C0E1F700C0000088B3806488BB4FE35DE0C3
S11300D063E0415050406040E1F700C0000088B345
S11300E0806288BB7FE38DE0A3E071508040A04034
S11300F0E1F700C0000088B3806188BBEFE3FDE056
S113010023E0E150F0402040E1F700C0000088B354
S1130110886088BB3FE34DE053E03150404050409D
S1130120E1F700C0000088B3846088BB6FE976E81B
S113013081E0615070408040E1F700C0000088B366
S1130140826088BBAFE9E6E8F1E0A150E040F0400E
S1130150E1F700C0000088B3816088BB2FE936E86E
S113016041E0215030404040E1F700C0000088B336
S113017018BA5FE36DE073E0515060407040E1F7FE
S113018000C0000081E088BBAFE3EDE0F3E0A150E4
S1130190E040F040E1F700C0000028B3236028BB32
S11301A02FE33DE043E0215030404040E1F700C000
S11301B0000028B3276028BB5FE36DE073E0515073
S11301C060407040E1F700C0000028B32F6028BBF6
S11301D0AFE3EDE0F3E0A150E040F040E1F700C010
S11301E0000028B32F6128BB2FE33DE043E02150FA
S11301F030404040E1F700C0000028B32F6328BB23
S11302005FE36DE073E0515060407040E1F700C07F
S1130210000028B32F6728BBAFE3EDE0F3E0A15063
S1130220E040F040E1F700C0000028B398BB2FE3A2
S11302303DE043E0215030404040E1F700C0000081
S113024018BA5FE966E871E0515060407040E1F728
S113025000C0000035E538BBAFE3EDE0F3E0A150AA
S1130260E040F040E1F700C000002AEA28BB4FE379
S11302705DE063E0415050406040E1F700C00000A1
S113028038BB7FE3ADE0E3E07150A040E040E1F72C
S113029000C0000028BBFFE32DE033E0F150204014
S11302A03040E1F700C0000018BA4FE956E861E0B9
S11302B0415050406040E1F700C0000028E128BBF5
S11302C07FE3ADE0E3E07150A040E040E1F700C01F
S11302D0000028BBFFE32DE033E0F1502040304024
S11302E0E1F700C000002CE328BB4FE35DE063E0CE
S11302F0415050406040E1F700C000002EE728BBA9
S11303007FE3ADE0E3E07150A040E040E1F700C0DE
S1130310000098BBFFE32DE033E0F1502040304073
S1130320E1F700C0000018BA4FE956E861E0415017
S113033050406040E1F700C0000088BB7FE39DE0CF
S1130340A3E071509040A040E1F700C0000092E0AB
S113035098BBEFE3FDE023E0E150F0402040E1F7FB
S113036000C0000024E028BB3FE34DE053E03150DF
S113037040405040E1F700C0000038E038BB6FE374
S11303807DE0A3E061507040A040E1F700C00000B0
S113039040E148BBEFE3FDE053E0E150F040504062
S11303A0E1F700C0000050E258BB6FE37DE0A3E03A
S11303B061507040A040E1F700C0000060E468BBF9
S11303C0EFE3FDE073E0E150F0407040E1F700C07E
S11303D0000070E878BBAFE3EDE0F3E0A150E0404B
S11303E0F040E1F700C0000018BAAFE9E6E8F1E038
S11303F0A150E040F040E1F700C0000078BB7FE38B
S1130400ADE0E3E07150A040E040E1F700C000003F
S113041068BBFFE36DE073E0F15060407040E1F7CA
S113042000C0000058BBAFE3EDE0F3E0A150E040B2
S1130430F040E1F700C0000048BB4FE35DE063E03B
S1130440415050406040E1F700C0000038BB7FE3FA
S1130450ADE0E3E07150A040E040E1F700C00000EF
S113046028BBFFE32DE033E0F15020403040E1F7BA
S113047000C0000098BB4FE35DE063E04150504092
S11304806040E1F700C0000088BB7FE38DE093E0AB
S1130490715080409040E1F700C00000E9CDF8942D
S10504A0FFCF88
S9030000FC
