:100000000C942A000C9434000C9434000C943400AA
:100010000C9434000C9434000C9434000C94340090
:100020000C9434000C9434000C9434000C94340080
:100030000C9434000C9434000C9434000C94340070
:100040000C9434000C9434000C9434000C94340060
:100050000C94340011241FBECFE5D4E0DEBFCDBF29
:100060000E9436000C944E000C94000088E087BB80
:1000700088E088BB2FEF80E792E0215080409040DD
:10008000E1F700C0000018BA2FEF80E792E021509E
:1000900080409040E1F700C00000EACFF894FFCF25
:00000001FF
