:100000000C942A000C9434000C9434000C943400AA
:100010000C9434000C9434000C9434000C94340090
:100020000C9434000C9434000C9434000C94340080
:100030000C9434000C9434000C9434000C94340070
:100040000C9434000C9434000C9434000C94340060
:100050000C94340011241FBECFE5D4E0DEBFCDBF29
:100060000E946F000C9493000C94000082BB85B337
:100070008E7F85BB85B3826085BB2FE986E891E0E2
:10008000215080409040E1F700C0000085B38D7F93
:1000900085BB089582BB85B3816085BB85B38260D3
:1000A00085BB81EE94E00197F1F700C0000085B3B5
:1000B0008D7F85BB08958FEF81BB83E084BB88E390
:1000C0000E94360086E00E9436008EE00E943600D4
:1000D00081E00E94360080E80E94360008950E9468
:1000E0005B0088E40E944A0085E40E944A008CE498
:1000F0000E944A008CE40E944A008FE40E944A0059
:1001000084E10E94360087E50E944A008FE40E9445
:100110004A0082E50E944A008CE40E944A0084E47E
:0A0120000E944A00FFCFF894FFCFC1
:00000001FF
