:100000000C942A000C943F000C943F000C943F0089
:100010000C943F000C943F000C943F000C943F0064
:100020000C943F000C943F000C943F000C943F0054
:100030000C943F000C943F000C943F000C943F0044
:100040000C943F000C943F000C943F000C943F0034
:100050000C943F0011241FBECFE5D4E0DEBFCDBF1E
:1000600010E0A0E6B0E0E2EFF0E002C005900D92F3
:10007000A437B107D9F70E9441000C9477000C9483
:100080000000CF93DF93CDB7DEB764970FB6F89437
:10009000DEBF0FBECDBF84E1E0E6F0E0DE011196E9
:1000A00001900D928A95E1F71ABA8FEF81BB89B35F
:1000B0008130E9F716C0FC01EE0FFF1F21E030E0B0
:1000C0002C0F3D1FE20FF31F208122BB3FE748E3C7
:1000D00021E0315040402040E1F700C0000001968F
:1000E00002C080E090E08A3091052CF3E0CFF894D4
:0200F000FFCF40
:1000F200C000F900A400B000990092008200F8004C
:0401020080009000E9
:00000001FF
