:100000000C942A000C9434000C9434000C943400AA
:100010000C9434000C9434000C9434000C94340090
:100020000C9434000C9434000C9434000C94340080
:100030000C9434000C9434000C9434000C94340070
:100040000C9434000C9434000C9434000C94340060
:100050000C94340011241FBECFE5D4E0DEBFCDBF29
:100060000E946C000C9490000C94000082BB85B33D
:100070008E7F85BB85B3826085BB83ED90E301975E
:10008000F1F700C0000085B38D7F85BB089582BB6A
:1000900085B3816085BB85B3826085BB83ED90E3CA
:1000A0000197F1F700C0000085B38D7F85BB0895EF
:1000B0008FEF81BB83E084BB88E30E94360086E03B
:1000C0000E9436008EE00E94360081E00E943600D9
:1000D00080E80E94360008950E94580088E40E943B
:1000E000470085E40E9447008CE40E9447008CE4AE
:1000F0000E9447008FE40E94470084E10E9436007E
:1001000087E50E9447008FE40E94470082E50E9435
:1001100047008CE40E94470084E40E944700FFCF20
:04012000F894FFCF81
:00000001FF
