S010000054696D65722031362E737265638C
S11300000C942A000C943C000C943C000C943C008E
S11300100C943C000C943C000C943C000C943C006C
S11300200C9447000C943C000C943C000C943C0051
S11300300C943C000C943C000C943C000C943C004C
S11300400C943C000C943C000C943C000C943C003C
S11300500C943C0011241FBECFE5D4E0DEBFCDBF1D
S113006020E0A0E6B0E001C01D92A136B207E1F79E
S11300700E943E000C945F000C9400008FEF81BB43
S113008012BA84E089BF81E08EBD7894FFCF1F92BD
S11300900F920FB60F9211248F93809160008F5F9F
S11300A0809360008B3028F082B3809582BB1092DD
S11300B060008F910F900FBE0F901F901895F894C9
S10500C0FFCF6C
S9030000FC
