S01800004C434420414E44204B455950414420322E7372656316
S11300000C942A000C9447000C9447000C9447006D
S11300100C9447000C9447000C9447000C94470040
S11300200C9447000C9447000C9447000C94470030
S11300300C9447000C9447000C9447000C94470020
S11300400C9447000C9447000C9447000C94470010
S11300500C94470011241FBECFE5D4E0DEBFCDBF12
S113006010E0A0E6B0E0ECE6F2E002C005900D92EC
S1130070A037B107D9F720E0A0E7B0E001C01D9296
S1130080A237B207E1F70E9424010C9434010C94C6
S1130090000082BB85B38E7F85BB85B38D7F85BB16
S11300A085B3846085BB85E08A95F1F7000085B34C
S11300B08B7F85BB8FED9EE20197F1F700C00000B6
S11300C0089582BB85B3816085BB85B38D7F85BB75
S11300D085B3846085BB85E08A95F1F7000085B31C
S11300E08B7F85BB8FE99FE00197F1F700C000008B
S11300F008958FEF84BB81BB2FEF89EF90E02150EF
S113010080409040E1F700C0000088E30E9449006D
S11301108CE00E94490086E00E94490081E00E9430
S1130120490080E80E944900089581E00E94490046
S113013080E80E944900089580EF8ABB8FEF8BBB53
S11301408BB38F708BBB89B38F70809370008F30AB
S1130150B9F78FE39FE10197F1F700C0000089B37D
S11301608F70809370008F30A1F38FE79EE3019727
S1130170F1F700C0000089B38F70809370008F3056
S113018041F38FEE8BBB89B38F70809370008F30F7
S113019021F083E08093710023C08FED8BBB89B382
S11301A08F70809370008F3021F082E08093710013
S11301B017C08FEB8BBB89B38F70809370008F3027
S11301C021F081E0809371000BC08FE78BBB89B372
S11301D08F70809370008F3009F4AECF109271004D
S11301E0809170008E3059F4E0917100F0E0EE0FD0
S11301F0FF1FEE0FFF1FE05AFF4F838108958B30DE
S113020059F4E0917100F0E0EE0FFF1FEE0FFF1FB5
S1130210E05AFF4F818108958D3059F4E0917100C7
S1130220F0E0EE0FFF1FEE0FFF1FE05AFF4F828139
S11302300895E0917100F0E0EE0FFF1FEE0FFF1F35
S1130240E05AFF4F808108950E94790080EC0E945B
S113025049000E949C000E9461000E949C00833619
S10F0260C1F70E949500F5CFF894FFCF81
S113026C3738392F3435362A3132332D63303D2B20
S9030000FC
