:100000000C942A000C9434000C9434000C943400AA
:100010000C9434000C9434000C9434000C94340090
:100020000C9434000C9434000C9434000C94340080
:100030000C9434000C9434000C9434000C94340070
:100040000C9434000C9434000C9434000C94340060
:100050000C94340011241FBECFE5D4E0DEBFCDBF29
:100060000E9440000C9445000C94000081B380680D
:1000700081BB85B5886485BD85B5816285BD0895E0
:0E0080000E9436008FEF83BDFDCFF894FFCFB6
:00000001FF
